:020000040000FA
:100000000C9423020C9454020C9454020C94540249
:100010000C9454020C9454020C9454020C94540208
:100020000C9454020C9454020C9454020C945402F8
:100030000C9454020C9454020C9454020C945402E8
:100040000C9454020C9469390C9454020C9454028C
:100050000C9454020C9454020C9454020C941F39C6
:100060000C9454020C94E9380C94BF380C9454024C
:100070000C9454020C9454020C9454020C945402A8
:100080000C9454020C9454020C9454020C94540298
:100090000C9454020C9454020C9454020C94540288
:1000A0000C9454020C9454020C9454020C94540278
:1000B0000C9454020C9454020C9454020C94540268
:1000C0000C9454020C9454020C9454020C94540258
:1000D0000C9454020C9454020C9454020C94540248
:1000E0000C94540207634236B79BD8A71A39685656
:1000F00018AEBAAB558C1D3CB7CC5763BD6DEDFD4A
:10010000753EF6177231BF000000803F0800000006
:10011000BE922449123EABAAAA2ABECDCCCC4C3EFC
:1001200000000080BEABAAAAAA3E00000000BF00EB
:100130000000803F0000000000084178D3BB4387E7
:10014000D1133D190E3CC3BD4282AD2B3E68EC82FB
:1001500076BED98FE1A93E4C80EFFFBE01C4FF7F80
:100160003F00000000000C94AA1C0C94EB140C94AB
:10017000DC1F0C94C3020C9458200C948F140C9424
:100180008A020C94A82D0C94F4020C947E160C9404
:100190003E040C94F1090C94E6020C9442040C9475
:1001A000D22C0C9415040C94D2020C94BE1E0C9408
:1001B0009F1E0C9471050C949A1B0C942A040C94A9
:1001C00020040C94B42D0C94021F0C94BF1C0C94AE
:1001D000FC090C9483200C94372D0C9434040C945B
:1001E0008E020C94911A0C9405250C94FB110C941E
:1001F000DA090C944C040C94FA030C9402150C9438
:10020000FA2D0C9438040C94E7140C9443160C94B7
:1002100088060C9496020C9451050C94F62C0C94C0
:10022000C81C0C9472160C94242C0C947C160C9400
:10023000821A0C946F120C94021D0C948E190C945B
:1002400081160C949B210C948E290C941D040C9403
:10025000F0090C94C02F0C94D6210C9481050C94B9
:1002600079030C94AE2D0C9450040C9492240C94AD
:10027000A7190C94102C0C946E160C9430040C944A
:10028000FB140C94E81E0C942C030C94FF030C94A8
:1002900019040C9446040C942F310C94C9190C9435
:1002A000E3140C94DA120C94021A0C9411040C94BA
:1002B00068060C9426040C947E140C9405120C947D
:1002C000923A0C94C51D0C94BE1F0C94AC14466954
:1002D0006E69746F2073746F2063617A7A6F206423
:1002E0006920636F6E74726F6C6C6F00507265730F
:1002F0006520736961205461726765742063686565
:1003000020536F676C696500000020002300260001
:1003100029002C002F00320000010000030106011B
:10032000090100002100240027002A002D003000D0
:10033000330001010000040107010A0100000A0B5B
:1003400002090C0D0E080703040100000000000064
:10035000000000000000000000000000000000009D
:10036000000000000000000012111000000000005A
:10037000000000000000000000000000000000007D
:1003800000000102102020080810204010204080AA
:100390000201020108040201010204081020408049
:1003A00080402010080402018004020180402010D7
:1003B0000804020108040201010204081020408020
:1003C00001020408102040800000220025002800BF
:1003D0002B002E003100340002010000050108014D
:1003E0000B010505050507050808080802020202B9
:1003F0000A0A0808040404040101010101010101C1
:100400000303030303030303040707070C0C0C0C8B
:100410000C0C0C0C02020202060606060606060674
:100420000B0B0B0B0B0B0B0B7C3C3E5E2B3D3F2F4A
:100430005B5D3B2C2A225C0049746572617A696FAE
:100440006E650000923A11241FBECFEFD1E2DEBFED
:10045000CDBF00E00CBF18E0A0E0B2E0E6EDF7E9A8
:1004600000E00BBF02C007900D92AA3DB107D9F77B
:100470002DE0AAEDB8E001C01D92A931B207E1F765
:1004800012E0C3E2D2E000E006C021970109802F0C
:10049000FE010E94A04AC232D10780E00807A9F7F6
:1004A0000E946F3B0C94E94B0C940000CF93DF93B8
:1004B000EC01FA013296E60FF71FDC019D012C1BBF
:1004C0003D0BCF01861B970B4D91442311F04193B7
:1004D000F5CFAC01421B530B640F751FFB01329724
:1004E000308361507109FB012083DF91CF91089522
:1004F00020E3FC0120833296862F82958F706F70E7
:100500006A3030F4605D6293682F8111F5CF0895F1
:10051000695CF9CFFC01818D928D08950895DC010D
:10052000ED91FC910190F081E02D1994AF92BF9272
:10053000CF92DF92EF92FF920F931F93CF93DF93AF
:100540006C017B018B01040F151FEB015E01AE18DE
:10055000BF08C017D10759F06991D601ED91FC9100
:100560000190F081E02DC6011995892B79F7C5011D
:10057000DF91CF911F910F91FF90EF90DF90CF907F
:10058000BF90AF900895FC01538D448D252F30E02E
:10059000842F90E0821B930B541710F0CF96089590
:1005A00001970895FC01918D828D981761F0A28DBD
:1005B000AE0FBF2FB11D5D968C91928D9F5F9F7383
:1005C000928F90E008958FEF9FEF0895FC01918D39
:1005D000828D981731F0828DE80FF11D858D90E0A6
:1005E00008958FEF9FEF0895FC01918D228D892F43
:1005F00090E0805C9F4F821B91098F73992708952B
:1006000080EA9BE00E94F40221E0892B09F420E0BB
:10061000822F0895FC01A48DA80FB92FB11DA35AF4
:10062000BF4F2C91848D90E001968F739927848F12
:10063000A689B7892C93A089B1898C918370806435
:100640008C93938D848D981306C00288F389E02DD6
:1006500080818F7D80830895EF92FF920F931F9387
:10066000CF93DF93EC0181E0888F9B8D8C8D981365
:100670001AC0E889F989808185FF15C09FB7F89471
:10068000EE89FF896083E889F989808183708064BD
:1006900080839FBF81E090E0DF91CF911F910F9108
:1006A000FF90EF900895F62E0B8D10E00F5F1F4F17
:1006B0000F731127E02E8C8D8E110CC00FB607FC26
:1006C000FACFE889F989808185FFF5CFCE010E94B4
:1006D0000A03F1CFEB8DEC0FFD2FF11DE35AFF4F15
:1006E000F0829FB7F8940B8FEA89FB898081806242
:1006F000CFCFCF93DF93EC01888D8823B9F0AA89FF
:10070000BB89E889F9898C9185FD03C0808186FDCC
:100710000DC00FB607FCF7CF8C9185FFF2CF80811B
:1007200085FFEDCFCE010E940A03E9CFDF91CF9183
:10073000089580E090E0892B29F00E940003811148
:100740000E94000080E090E0892B49F080E090E07A
:10075000892B29F00E94000081110E94000080E096
:1007600090E0892B49F080E090E0892B29F00E94ED
:10077000000081110E94000080E090E0892B49F088
:1007800080E090E0892B29F00E94000081110C94F8
:1007900000000895282F30E0F901E45CFC4F9491AB
:1007A000F901EE57FC4F44912E513C4FF901249131
:1007B000222309F435C0992311F191509231F8F4B4
:1007C000E92FF0E08827E851FC4F8F4F0C94A04AA6
:1007D00019041D04FA0311041504FF032004260460
:1007E0002A043004340438043E044204FF0346045F
:1007F0004C045004809180008F7780938000E22F1A
:10080000F0E0EE0FFF1FE853FC4FA591B4918FB7B6
:10081000F894EC91611148C040954E234C938FBFE2
:100820000895809180008F7DE8CF80918000877F40
:10083000E4CF84B58F7784BDE2CF84B58F7DFBCFC5
:100840008091B0008F778093B000D9CF8091B000B5
:100850008F7DF9CF809190008F7780939000CFCFDC
:10086000809190008F7DF9CF80919000877FF5CFA8
:100870008091A0008F778093A000C1CF8091A000CD
:100880008F7DF9CF8091A000877FF5CF80912001E7
:100890008F7780932001B3CF809120018F7DF9CF96
:1008A00080912001877FF5CF4E2BB8CFCF93DF9378
:1008B00090E0FC01EE57FC4F24918E519C4FFC01BF
:1008C00084918823D1F090E0880F991FFC01EE5DA0
:1008D000FC4FA591B491FC01E853FC4FC591D49114
:1008E000623071F49FB7F8943C91822F80958323F6
:1008F0008C93E8812E2B28839FBFDF91CF910895A1
:100900008FB7F894EC912E2B2C938FBFF6CF90914C
:100910007B00977F90937B008653806480937C005C
:1009200080917A00806480937A0080917A0086FDBD
:10093000FCCF809178009091790008953FB7F894AA
:100940008091E9089091EA08A091EB08B091EC0839
:1009500026B5A89B05C02F3F19F00196A11DB11D1A
:100960003FBFBA2FA92F982F8827BC01CD01620F56
:10097000711D811D911D42E0660F771F881F991F11
:100980004A95D1F708958F929F92AF92BF92CF92DE
:10099000DF92EF92FF924B015C010E949E046B017B
:1009A0007C010E949E046C197D098E099F09683E96
:1009B000734081059105A8F321E0821A9108A108EE
:1009C000B10888EEC80E83E0D81EE11CF11C81142A
:1009D0009104A104B10429F7FF90EF90DF90CF902C
:1009E000BF90AF909F908F9008952FB7F89460912B
:1009F000E5087091E6088091E7089091E8082FBF1C
:100A00000895FC01DB0112968D919C9113979383BD
:100A100082838DEC92E09183808314968C9114975D
:100A2000848315968C911597858316964D915D91CB
:100A30006D917C91199746835783608771871A96C9
:100A40004D915D916D917C911D974287538764878D
:100A500075871E964D915D916D917C91519746875A
:100A60005787608B718B52968C915297828B5396DD
:100A70004D915D916D917C915697438B548B658B15
:100A8000768B57964D915D916D917C915A97478BDE
:100A9000508F618F728F5B968D919C91948F838F15
:100AA0000895DC015996ED91FC913097B9F0838956
:100AB0009489A589B6894285538564857585841B8B
:100AC000950BA60BB70B811520E89207A105B10580
:100AD00038F08FEF9FE7A0E0B0E0089590E080E06D
:100AE0000895DC0159968D919C91009739F0DC01B5
:100AF000ED91FC910480F581E02D199490E080E067
:100B00000895CF93DF931F92CDB7DEB76983DC01E1
:100B1000ED91FC910280F381E02D41E050E0BE01B7
:100B20006F5F7F4F19950F90DF91CF910895CF930D
:100B3000CFB7F8948091DE08811127C0E7E1F4E097
:100B40008491E7EBF3E09491E82FF0E0EE0FFF1FC4
:100B5000EE5DFC4FA591B491EC91E92321F461E0A5
:100B600085E30E94CA0361E085E30E9456048CB5C8
:100B700080618CBD8CB580648CBD61E084E30E9493
:100B8000560461E083E30E9456048091DE088F5F83
:100B90008093DE08CFBFCF910895CF93DF93FC0100
:100BA000A481B581109711F480E029C0EC01ED918A
:100BB000FC9111970688F789E02DCD0119952FA199
:100BC00038A5811119C0232B79F78DEF9FEF98A7D6
:100BD0008FA38C819D81DC01ED91FC910680F781D2
:100BE000E02D19958C819D81DC01ED91FC910488AB
:100BF000F589E02D1995D8CF81E0232BA9F6DF9157
:100C0000CF910895CF92DF92EF92FF920F931F93AF
:100C1000CF93DF9300D01F92CDB7DEB78C01F901DF
:100C200080E0DE0111967D019E2F9F77EE0FEF2F62
:100C3000EE1FFF0BF195309709F09068D701A80FD0
:100C4000B11D9C938F5F309779F790E0FA01E81B14
:100C5000F90B6483FA01E81BF90B3596D701BD0146
:100C60006E197F09681779071CF46D916193F7CFAE
:100C7000FC013196D80114968D919C917F01E20E72
:100C8000F31EBA016E1B7F0B6B5F7F4FDC01ED9192
:100C9000FC910280F381E02DA70119956C010E945F
:100CA000F504F801608B718B828B938B81E0EC14DF
:100CB000FD0409F080E00F900F900F900F90DF91EE
:100CC000CF911F910F91FF90EF90DF90CF900895FB
:100CD000EF92FF920F931F93CF93DF93EC018B0161
:100CE0007A010E94F504688B798B8A8B9B8B8C81AF
:100CF0009D81DC01ED91FC910280F381E02DA70143
:100D0000B801DF91CF911F910F91FF90EF9019944F
:100D10001F93CF93DF93EC01162F0E94F504688B8D
:100D2000798B8A8B9B8B8C819D81DC01ED91FC9171
:100D30000190F081E02D612FDF91CF911F911994E7
:100D40008F929F92AF92BF92CF92DF92EF92FF92DB
:100D50000F931F93CF93DF93EC018B010E94F50457
:100D60004B015C018C819D81DC01ED91FC91008443
:100D7000F185E02D1995892BA9F40E94F5046B01EA
:100D80007C01C818D908EA08FB082C853D85A8EE27
:100D9000B3E00E94F447C616D706E806F90610F33A
:100DA00080E00CC08C819D81DC01ED91FC9102847E
:100DB000F385E02D1995F801808381E0DF91CF91D3
:100DC0001F910F91FF90EF90DF90CF90BF90AF9069
:100DD0009F908F9008953F924F925F926F927F9273
:100DE0008F929F92AF92BF92CF92DF92EF92FF923B
:100DF0000F931F93CF93DF93CDB7DEB764970FB6F2
:100E0000F894DEBF0FBECDBF8C016B01DC011696DE
:100E10006D917C910E94A00681111BC060E070E082
:100E2000CB0164960FB6F894DEBF0FBECDBFDF9145
:100E3000CF911F910F91FF90EF90DF90CF90BF90D7
:100E4000AF909F908F907F906F905F904F903F906A
:100E50000895D8011696ED91FC9130801982E1E059
:100E6000F0E0FB83EA83412C512C3201812C912C40
:100E700054018394BE016F5F7F4FC8010E94A0069A
:100E8000882361F2EA80FB80BFEFEB1AFB0A8981BD
:100E9000D8011696ED91FC912A813B81E20FF31F58
:100EA0008083E981AE2FAF77B0E0A50194010E9465
:100EB000BF47460E571E681E791E37E0880C991CE6
:100EC000AA1CBB1C3A95D1F7E7FD44C0332D307FF7
:100ED000332E8FEF8E0DD6018C93B0E33B1353C0AE
:100EE000F801668177816E0D7F1DC8010E94A00602
:100EF000882309F493CFD80116966D917C918A814D
:100F00009B810296680F791FC8010E94A006882362
:100F100009F484CFEA80FB80B3E0EB0EF11CD8012A
:100F20001696ED91FC91D6018C91DF01A80FB11DB1
:100F300011968C91119790E0982F882712962C91FA
:100F4000820F911D208121FD0296F2E0E0E030E069
:100F500020E01FC0FB82EA8297012530310509F0AD
:100F600089CF8FEF9FEFD80198969C938E93979798
:100F700014968D919C91DC01ED91FC910488F5898A
:100F8000E02D19954BCFF0E0E0E030E020E090E07C
:100F900080E0A70170E060E08F2E9E2EA32EB22E7F
:100FA000481959096A097B094E835F8368877987E5
:100FB0009C0150E040E02B873C874D875E874E8147
:100FC0005F8168857985480D591D6A1D7B1D4A839F
:100FD0005B836C837D8384149504A604B70408F0B6
:100FE00051C0BE016F5F7F4FC8010E94A0068823D9
:100FF00009F414CFD80195960D90BC91A02DBC8B0F
:10100000AB8BAB2B49F1B0E33B1226C0F60120813C
:101010004EEF5FEF6FEF7FEF421B510961097109DE
:101020008A819B81AC81BD81480F591F6A1F7B1F3C
:101030008B859C85AD85BE8584179507A607B70768
:1010400058F4AB89BC89ED91FC9111970190F08126
:10105000E02D6981CD011995F80180859185E8160B
:10106000F90650F489810680F781E02DEE0DFF1D11
:101070008083FFEFEF1AFF0A2FEF821A920AA20A6B
:10108000B20A9DCFD80195968D919C919697892B08
:1010900081F418968D919C91B0E0A0E02A813B816B
:1010A0004C815D8182179307A407B50710F4F12CDA
:1010B000E12CB70190E080E0B4CEFC0120812EBD90
:1010C0009B012150310941F051810DB407FEFDCF44
:1010D0004EB55EBD4193F5CF61507109860F971FE4
:1010E0000DB407FEFDCF2EB5FC0120830895E091DD
:1010F000EE08F091EF0880819091ED08892B8083B4
:101100000895E091EE08F091EF0890818091ED084C
:1011100080958923808308958EBD00000DB407FE5D
:10112000FDCF8EB508958FEF0C948C080F931F930D
:10113000CF93DF93EC010E94F5048B010E9493088A
:101140008F3F69F00E94F504601B710B6C177D07DF
:10115000A8F380E0DF91CF911F910F91089581E076
:10116000F9CFAF92BF92CF92DF92EF92FF920F939F
:101170001F93CF93DF9300D000D01F921F92CDB763
:10118000DEB78C017B016A0180919C098333E1F415
:101190005801A40EB51EA016B10609F46FC00E9436
:1011A000810880EF0E948C08812F0E948C08802F7C
:1011B0000E948C080F5F1F4FF70181917F010E94F1
:1011C0008C080E947708E7CF5B01A40EB51E84331C
:1011D000C1F40E94810819830A838D2D80688B8356
:1011E000CC8264E070E0CE0101960E945D08AE14EE
:1011F000BF0409F441C0F70181917F010E948C086E
:10120000F6CF0E9481080F3F110509F028F41982DA
:101210000A8384E08B830CC017FD17C019820A83F0
:1012200033E0169507953A95E1F7007E0C600B8345
:1012300086E0C816D104A0F5F701DE011496EA1580
:10124000FB0599F081918D93FACFC80126E0969520
:1012500087952A95E1F7807E19830A830115104C42
:1012600010F48461D7CF8C61D5CFB6016D5F7F4F0D
:10127000CE0101960E945D080E947708C60128965B
:101280000FB6F894DEBF0FBECDBFDF91CF911F9197
:101290000F91FF90EF90DF90CF90BF90AF900895A7
:1012A00063E070E0CE0101960E945D08F701819134
:1012B0007F010E948C08AE14BF04C1F7DDCFCF932D
:1012C000DF931F92CDB7DEB7898341E050E0BE01C6
:1012D0006F5F7F4F90E080E00E94B1080F90DF9138
:1012E000CF91089590E020919C09233339F40C9616
:1012F000982F990F990F990F80E008954896F8CF8D
:10130000DA01E091F008F0E0FE2FEE27E60FF71F7C
:1013100090E0982F8827A901BD018E0F9F1F0C9484
:10132000B108CF93DF931F921F92CDB7DEB77983B9
:101330006A8322E030E0AE014F5F5F4F60E170E012
:101340000E9480090F900F90DF91CF910895CF9365
:10135000DF931F921F92CDB7DEB779836A8322E0B5
:1013600030E0AE014F5F5F4F64E070E00E948009A3
:101370000F900F90DF91CF910895CF93DF931F923D
:10138000CDB7DEB72091F00830E0322F2227260FAC
:10139000371F90E0982F8827498341E050E0BE0135
:1013A0006F5F7F4F820F931F0E94B1080F90DF91F4
:1013B000CF910895CF93DF931F92CDB7DEB76983A6
:1013C000DC01ED91FC910280F381E02D41E050E0E1
:1013D000BE016F5F7F4F19950F90DF91CF910895F8
:1013E0000895FC019485FB018485981303C081E076
:1013F000983008F080E00895CF93DF931F92CDB727
:10140000DEB76983DC01ED91FC910280F381E02D70
:1014100041E050E0BE016F5F7F4F19950F90DF9163
:10142000CF910895089561E0FC0184810E94CA0370
:101430008091DF0881111092DF0808958CBD9DBD59
:101440000895CF93DF93EC018091DF08811109C0EB
:1014500081E08093DF0880913D0C90913E0C0E94CA
:101460001E0A60E08C81DF91CF910C94CA038F92A9
:101470009F92AF92BF92FF920F931F93CF93DF93F0
:10148000EC01F62E49015A018E81882389F08F8163
:1014900098859C012F5F3F4F38872F838230924081
:1014A00018F40E949308F3CFCE010E94130A1E8203
:1014B000CE010E94210A8CE291E00E9496088F2DB5
:1014C00080640E948C0808E110E0D501C401002E60
:1014D00004C0B695A795979587950A94D2F70E9470
:1014E0008C0808501109083F8FEF180771F785E93C
:1014F000FF2021F028E087E8F2128FEF0E948C088D
:1015000010E00E9493088A8787FF04C01F3F11F0F4
:101510001F5FF7CFDF91CF911F910F91FF90BF9089
:10152000AF909F908F900895AF92BF92CF92DF922D
:10153000EF92FF920F931F93CF93DF93EC0169011A
:10154000C801820F931F8130924050F58E8188230D
:1015500079F088819981AA81BB8184179507A607B4
:10156000B70731F48F819885C816D90608F042C0B4
:10157000488359836A837B838B85833039F089E084
:10158000440F551F661F771F8A95D1F79A01AB014B
:1015900061E1CE010E94370A882389F083E08D83C0
:1015A000CE010E94130A80E0DF91CF911F910F912D
:1015B000FF90EF90DF90CF90BF90AF9008950E9482
:1015C000F5045B010E9493088A878F3F69F40E94AB
:1015D000F5046A197B096D327140A0F38FE08D83A9
:1015E000CE010E94130ADCCF8E3F89F418861F8239
:1015F00081E08E838F8198858C159D0550F40E9423
:1016000093088F819885019698878F83F3CF8DE01B
:10161000E6CF6701E00EF11E0E949308F601819368
:101620006F01EE15FF05C1F78F819885080F191F0F
:1016300018870F838985882319F001151240A0F0BF
:101640008E81882389F08F8198859C012F5F3F4F81
:1016500038872F838230924018F40E949308F3CF8A
:10166000CE010E94130A1E8281E09ECFCF92DF92AC
:10167000EF92FF920F93CF93DF93EC01690182E128
:10168000411551056105710599F08B85833039F05D
:1016900089E0440F551F661F771F8A95D1F79A017D
:1016A000AB0168E1CE010E94370A882319F084E07B
:1016B0008D832DC08EEF0E948C0876018EEFD81A94
:1016C000F70181917F010E948C08EC14FD04C1F7A1
:1016D0008FEF0E948C088FEF0E948C080E94930865
:1016E0008A878F71853071F4011116C0CE010E9476
:1016F000130A81E0DF91CF910F91FF90EF90DF907F
:10170000CF90089581E18D83CE010E94130ACE010E
:101710000E94130A80E0EECF88E592E00E949608CE
:10172000811102C085E1C4CF20E030E0A9016DE065
:10173000CE010E94370A882311F084E1B9CF0E94BC
:1017400093088111FACFD2CF0F934091E0085091C6
:10175000E1086091E2087091E308411551056105C7
:10176000710599F0082F20EA39E080919D09909148
:101770009E090E94360B882349F01092E0081092CF
:10178000E1081092E2081092E30881E00F910895B9
:101790000F93CF93C82F80919F09811105C0C1E09D
:1017A0008C2FCF910F910895409102025091030226
:1017B00060910402709105020C2F20EA39E08091BB
:1017C0009D0990919E090E94360B811102C0C0E0D4
:1017D000E7CFCC2321F381E00E94A40B8823B9F347
:1017E00010929F09DDCF8F929F92AF92BF92EF929E
:1017F000FF920F931F93CF934B015C01C42F8091F5
:10180000020290910302A0910402B0910502881592
:101810009905AA05BB0551F181E00E94C80B811111
:101820000BC080E0CF911F910F91FF90EF90BF9080
:10183000AF909F908F90089580EAE82E89E0F82E6F
:1018400000E012E030E020E0B501A40180919D09A4
:1018500090919E090E94940A882319F380920202B3
:1018600090920302A0920402B092050240919F0957
:101870004C2B40939F0981E0D5CF8F929F92AF92DE
:10188000BF92CF92DF92EF92FF92CF932FE33CE093
:1018900030939E0920939D09882309F46DC040E090
:1018A00060E070E0CB010E94F30B81110BC080E07F
:1018B000CF91FF90EF90DF90CF90BF90AF909F902F
:1018C0008F90089580915E0B8F7789F780916A0BD6
:1018D00090916B0BA0916C0BB0916D0B84369105C0
:1018E000A105B10520F3C090660BD090670BE09086
:1018F000680BF090690BC114D104E104F104B9F252
:1019000040E0C701B6010E94F30B882381F2809169
:10191000AB099091AC098115924049F6A091B009AC
:10192000AA2329F26091AE097091AF096115710582
:1019300009F4BDCF2091AD09222309F4B8CFA093BB
:101940005D0C20934F0C90E080E030E0E1E0F0E0AF
:10195000C82FAF01082E02C0440F551F0A94E2F7AA
:101960002417350769F041E0480F01968930910549
:1019700079F74093580C9BCFC12CD12C7601C0CF66
:101980008093580C2091B6093091B70950E040E09F
:101990002115310541F42091C4093091C5094091C8
:1019A000C6095091C7092093500C3093510C4093B5
:1019B000520C5093530C46015701860E971EA11CE2
:1019C000B11C80925E0C90925F0CA092600CB09261
:1019D000610CE091B109F091B209F093640CE093CD
:1019E000630CB0E00E94BF47DC01CB01880D991D5C
:1019F000AA1DBB1D8093650C9093660CA093670C89
:101A0000B093680C25E0EE0FFF1F2A95E1F7E15037
:101A1000FE4FEF2FFF27E6958E0F9F1FA11DB11DD3
:101A20008093590C90935A0CA0935B0CB0935C0C70
:101A30008090B3099090B409B12CA12C8114910429
:101A400041F48090C0099090C109A090C209B09063
:101A5000C309C81AD90AEA0AFB0AC80CD91CEA1C2D
:101A6000FB1C04C0F694E794D794C794CA95D2F7A8
:101A7000C092540CD092550CE092560CF092570C38
:101A800085EFC8168FE0D806E104F10428F48CE055
:101A90008093620C81E00CCF80E125EFC2162FEF1E
:101AA000D206E104F104A0F38091CC099091CD0914
:101AB000A091CE09B091CF098093650C9093660CEC
:101AC000A093670CB093680C80E2E2CF4F925F92D4
:101AD0006F927F928F929F92AF92BF92CF92DF923E
:101AE000EF92FF920F931F93CF93DF93EC0142305D
:101AF00051056105710590F480E0DF91CF911F9150
:101B00000F91FF90EF90DF90CF90BF90AF909F909C
:101B10008F907F906F905F904F90089589859A8500
:101B2000AB85BC850196A11DB11D84179507A6073D
:101B3000B70710F3CB88DC88ED88FE888F89803169
:101B400009F042C0BB27A72F962F852F48015901C6
:101B50002A013B01C80ED91EEA1EFB1E809102021B
:101B600090910302A0910402B0910502C816D90613
:101B7000EA06FB0699F58F898031C1F5B301A20110
:101B8000552766277727440F551F4056564FFA01B1
:101B90009182808280919F09816080939F098A89C8
:101BA000823080F08D819E81AF81B8858C0D9D1D26
:101BB000AE1DBF1D8093E0089093E108A093E2085A
:101BC000B093E30881E099CFDB01CA01E7E0B69565
:101BD000A79597958795EA95D1F7B8CF40E0C701CB
:101BE000B6010E94F30B8111C6CF86CFB301A201CB
:101BF0004F77552766277727440F551F440F551FEA
:101C00004056564FFA0180829182A282B382C2CF9F
:101C10008F929F92AF92BF92CF92DF92EF92FF92FC
:101C20000F931F93CF93DF93FC0181859285A3854A
:101C3000B4850196A11DB11D84179507A607B707A6
:101C400070F480E0DF91CF911F910F91FF90EF90A2
:101C5000DF90CF90BF90AF909F908F900895838832
:101C60009488A588B6888789803189F5BB27A72FF6
:101C7000962F852FE9016A017B018F01BC01CD01FF
:101C8000680D791D8A1D9B1D8090020290900302B1
:101C9000A0900402B090050286169706A806B90621
:101CA00001F5F8018789803111F5DD24EE24FF2448
:101CB000F601EE0FFF1FE056F64F80819181B0E0F4
:101CC000A0E088839983AA83BB8381E0BBCFDB013B
:101CD000CA01C7E0B695A79597958795CA95D1F79C
:101CE000C9CF40E00E94F30B8111DBCFAACFE8946B
:101CF000C7F8DD24EE24FF24F601EE0FFF1FEE0FE0
:101D0000FF1FE056F64F80819181A281B381BF70A1
:101D1000D8CF4F925F926F927F92AF92BF92CF9245
:101D2000DF92EF92FF920F931F93CF93DF9300D038
:101D30001F92CDB7DEB78C0149835A836B837C83B6
:101D40005901C12CD12C7601412C82E0582E612CF6
:101D5000712C49815A816B817C819E012F5F3F4F9D
:101D6000C8010E94080E882339F1F8018585A30176
:101D7000920104C0220F331F441F551F8A95D2F7CA
:101D8000DA01C901C80ED91EEA1EFB1E49815A811B
:101D90006B817C818789803111F188EF9FEFAFEFF4
:101DA000BFE0481759076A077B0798F2F501C08220
:101DB000D182E282F38281E00F900F900F900F901A
:101DC000DF91CF911F910F91FF90EF90DF90CF9017
:101DD000BF90AF907F906F905F904F90089588EF85
:101DE0009FEFA0E0B0E0DDCFCF93DF93FC01258132
:101DF000222321F080E0DF91CF910895EC018091C2
:101E0000620C803159F582E08583178A108E118E1D
:101E1000128E8091630C9091640CB0E0A0E025E0FC
:101E2000880F991FAA1FBB1F2A95D1F7838B948B0C
:101E3000A58BB68B8BE49CE09C8F8B8F81E08C8391
:101E40001E821F82188619861A861B861C861D868E
:101E50001E861F86188A198A1A8ACDCF803251F6BB
:101E600083E085834091650C5091660C6091670C0E
:101E70007091680C478B508F618F728F9F012D5E20
:101E80003F4F8BE49CE00E94890E8111D3CFB2CFEB
:101E90008F929F92AF92BF92CF92DF92EF92FF927A
:101EA0000F931F93CF93DF93EC018D8181110EC0AF
:101EB00080E0DF91CF911F910F91FF90EF90DF9025
:101EC000CF90BF90AF909F908F9008950B891C8901
:101ED0002D893E89041715072607370748F34A015D
:101EE0005B01823031F48A869B86AC86BD8681E0B8
:101EF000E0CF81149104A104B10449F41E821F8231
:101F0000188619861A861B861C861D86F0CF0A85C0
:101F10001B852C853D85EB8DFC8D858590E0099694
:101F2000B901A8014150510961097109082E04C085
:101F300076956795579547950A94D2F77501640190
:101F4000E1E0CE1AD108E108F10804C0F694E79464
:101F5000D794C7948A95D2F7C416D506E606F70635
:101F600020F0012B022B032B11F58F89988DA98D61
:101F7000BA8D8E839F83A887B9878E010A5F1F4F12
:101F8000C114D104E104F10409F4ADCF4E815F81A5
:101F90006885798598018B8D9C8D0E94080E91E053
:101FA000C91AD108E108F1088111EACF81CFC41A1A
:101FB000D50AE60AF70AE1CF3F924F925F926F92FD
:101FC0007F928F929F92AF92BF92CF92DF92EF92C9
:101FD000FF920F931F93CF93DF93CDB7DEB72C976C
:101FE0000FB6F894DEBF0FBECDBF5C01DC015B967F
:101FF0008D909C905C9716964D905D906D907C9026
:102000001997411451046104710409F468C0BFEFC9
:102010004B1A5B0A6B0A7B0A312CF401818592858D
:10202000A385B4859C01AD012F5F3F4F4F4F5F4F9C
:1020300029873A874B875C87730162011D821E8264
:102040001F821886F40181859285A385B4852D8130
:102050003E814F815885281739074A075B0708F0EA
:1020600056C089859A85AB85BC858C159D05AE05C6
:10207000BF0550F482E0C82ED12CE12CF12C92E067
:10208000492E512C612C712C9E012F5F3F4FB701BF
:10209000A601C4010E94080E8823C9F189819A8192
:1020A000AB81BC81892B8A2B8B2B09F1260137014F
:1020B0009FEF491A590A690A790A2D813E814F8199
:1020C00058852F5F3F4F4F4F5F4F2D833E834F8388
:1020D00058873FEFC31AD30AE30AF30AB3CFF401D8
:1020E00040805180628073803324339496CFC4142F
:1020F000D504E604F70409F70FEF1FEF2FEF3FE0D9
:10210000B701A601C4010E94660D811119C080E0CB
:102110002C960FB6F894DEBF0FBECDBFDF91CF91E6
:102120001F910F91FF90EF90DF90CF90BF90AF90F5
:102130009F908F907F906F905F904F903F90089509
:10214000D50116964D915D916D917C911997411530
:1021500051056105710539F097018601C4010E949E
:10216000660D8823A1F2D5011696CD92DD92ED92EF
:10217000FC921997332051F0D701C6010196A11D99
:10218000B11DF40180839183A283B383F501878914
:10219000908DA18DB28D892B8A2B8B2B39F4848164
:1021A000C78AD08EE18EF28E80688483F5018481A7
:1021B0008062848381E0ACCF2F923F924F925F92F6
:1021C0006F927F928F929F92AF92BF92CF92DF9247
:1021D000EF92FF920F931F93CF93DF9300D0CDB771
:1021E000DEB7FC018581811118C08FEF9FEF0F9042
:1021F0000F900F90DF91CF911F910F91FF90EF9073
:10220000DF90CF90BF90AF909F908F907F906F9016
:102210005F904F903F902F900895848180FFE5CF8D
:10222000438954896589768982859385A485B58596
:10223000312C212C481759076A077B0719F02224F3
:102240002394312C6F012101CE0101963C01DF0165
:102250001696BB83AA834114510409F4C5C0F60144
:1022600042855385648575854A01F1E09F22D60138
:102270005B968D919C915C978A019B01E9E0369574
:10228000279517950795EA95D1F71596EC91E230C9
:10229000E9F5FC01628D738D848D958D600F711F42
:1022A000821F931FA12C22E0B22EA818B9084A144D
:1022B0005B0408F45201F601248126FD04C0A11438
:1022C000F2E0BF0671F40091020210910302209126
:1022D000040230910502061717072807390709F08D
:1022E0005EC040E00E94F30B882309F47ECFC40156
:1022F0008056964FD3019C012A0D3B1DFC012E17E1
:102300003F0709F46CC041914D93F9CFDC0114965D
:10231000BC90BA94B0228114910479F4B1100DC02C
:10232000452B462B472B69F5F6018789908DA18DAA
:10233000B28D86839783A087B187D6015B96ED9196
:10234000FC915C9716966D917D918D919C9119975A
:102350006250710981099109258504C0660F771FB4
:10236000881F991F2A95D2F70685178520893189FC
:10237000600F711F821F931F6B0D711D811D911DB9
:1023800091CFD60116964D915D916D917C911997E3
:102390002A813B810E94080E8111CFCF26CF730185
:1023A00085019401AB01BC0180919D0990919E092A
:1023B0000E94940A882309F418CF6A0C7B1CF6014A
:1023C00082859385A485B5858A0D9B1DA11DB11DB0
:1023D00082879387A487B5874A185B083CCF281B60
:1023E000390B620E731EEBCF2A94232809F0FDCE21
:1023F000898190E0FCCEFC01818D928D009711F0D7
:102400000C94DC108FEF9FEF08950F931F93CF93E1
:10241000DF93EC01898D9A8D10E000E0009799F030
:102420000E94DC108C010F3F100769F0898D9A8D96
:10243000FC014285538564857585415051096109C8
:1024400071090E94480FC801DF91CF911F910F9130
:1024500008951F93CF93DF93FC0125812223D1F1AF
:10246000162FEC01848187FF2AC0668577858089D5
:10247000918941E00E94F30B882361F1EA8980E2AF
:10248000E89FF0011124E056F64F309719F18D8145
:10249000823040F48B899C89AD89BE89848F958F69
:1024A000A68FB78F8F89988D938F828F8F89988D04
:1024B000A98DBA8DB58BA48B8C818F778C831111EC
:1024C00003C08C818F7E8C83812FDF91CF911F91F0
:1024D0000C94C80B80E0DF91CF911F910895FF927B
:1024E0000F931F93CF93DF93EC018D81813041F0E7
:1024F00090E080E0DF91CF911F910F91FF900895C0
:102500008C8181FFF5CF82FD1BC000919D09109148
:102510009E09C8010E94210A0E949308F82EC80152
:102520000E94130A8FEFF812E3CF8C8185FF1BC046
:1025300060E0CE010E9429128C818F7D8C83D8CFE0
:102540004B895C896D897E898A859B85AC85BD8533
:1025500084179507A607B707C1F2CE010E94480F5E
:102560008111D3CFC5CF4091E0085091E10860912F
:10257000E2087091E308452B462B472B21F080E0C1
:102580000E94A40BB5CF80618C832A853B85317076
:1025900080E092E0821B930BADCFCF93DF93EC01F1
:1025A00061E00E942912882311F01D8281E0DF91F1
:1025B000CF910895FC01818D928D009719F061E013
:1025C0000C94291208952F923F924F925F926F922E
:1025D0007F928F929F92AF92BF92CF92DF92EF92B3
:1025E000FF920F931F93CF93DF9300D01F921F9200
:1025F000CDB7DEB77C015B01342E5D83DC0115961F
:102600008C911597813009F0CEC014962C9021FE44
:10261000CAC022FCB4C0C32CDD8022947FE02722F4
:102620002094B22DB1702B2ED7011A964D915D9149
:102630006D917C911D97C114D10409F428C15B965A
:102640008D919C915C97FC0174807A948A019B0126
:1026500069E036952795179507956A95D1F7702209
:102660008A011170711020C001151105E9F4169648
:102670004D915D916D917C911997411551056105C1
:10268000710509F099C057968D919D910D90BC915F
:10269000A02D0097A105B10509F0B0C0C7010E94A7
:1026A000DC0F882309F47FC080E092E0801B910B4F
:1026B00046018C159D0508F44C01D7015B964D91A0
:1026C0005C915C9716968D919D910D90BC91A02D7B
:1026D0000297A109B109FA01258504C0880F991F45
:1026E000AA1FBB1F2A95D2F7468557856089718935
:1026F000840F951FA61FB71F9C01AD01270D311D2B
:10270000411D511D29013A01811432E0930609F05F
:102710007BC08091020290910302A0910402B091CB
:10272000050284159505A605B70559F48FEF9FEFAF
:10273000DC018093020290930302A0930402B09301
:102740000502022D9501B301A20180919D0990918E
:102750009E090E94360B882331F19EEFB91AC818E2
:10276000D908F70182859385A485B585880D991DC3
:10277000A11DB11D82879387A487B58755CFF70127
:10278000438954896589768982859385A485B58531
:10279000481759076A077B0709F43DCFC7010E9414
:1027A000480F811138CF81E090E0D70113969C93B8
:1027B0008E93129780E007C09E012F5F3F4F0E94CB
:1027C000080E811102C090E079C089819A81AB81A5
:1027D000BC81F701238D348DF901278948EF5FEF24
:1027E00060E070E0203121F048EF5FEF6FEF7FE0B5
:1027F00084179507A607B70708F050CFF70186831F
:102800009783A087B18750CF0115110599F5D7019E
:102810001A964D915D916D917C911D9753968D9176
:102820009D910D90BC91A02D481759076A077B0711
:1028300008F181E00E94C80B882309F4B4CF4092CC
:10284000020250920302609204027092050280918B
:102850009F09816080939F09C8018056964FD501DA
:102860009C01280D391DFC012E173F0759F04D9191
:102870004193FACF41E0C301B2010E94F30B8111F1
:10288000EBCF91CF281B390BA20EB31E68CFF701F7
:1028900083899489A589B68984179507A607B70700
:1028A00038F48481438B548B658B768B806884836A
:1028B000F701848183FD1AC0832D9D810F900F90B5
:1028C0000F900F900F90DF91CF911F910F91FF907C
:1028D000EF90DF90CF90BF90AF909F908F907F90C0
:1028E0006F905F904F903F902F90089561E0C701E7
:1028F0000E942912882309F456CFDECFCF93DF93AD
:102900001F92CDB7DEB7698341E050E0BE016F5F33
:102910007F4F0E94E3120F90DF91CF910895CF93E4
:10292000DF93EC01E98DFA8D309749F481E090E076
:102930009B838A8390E080E0DF91CF91089513829A
:102940001282898D9A8D0E94E312E98DFA8D22817F
:102950003381232B59F7F0CFFF920F931F93CF931F
:10296000DF93EB01FC01178A168A2A81211109C025
:102970002B81211106C02C81211103C02D8122231E
:1029800001F141155105E9F08A01FC01F08C80E567
:1029900091E00E941E0AAE014E5F5F4F24E030E0DE
:1029A0006CE070E08F2D0E948009B8018F2D0E948D
:1029B000910981E090E0DF91CF911F910F91FF90FD
:1029C000089580E0F7CFFC01848595850895FC018A
:1029D0008489958908952BEE32E0FC0131832083B0
:1029E000FB014089518962897389FC0142835383C9
:1029F000648375830895DC01ED91FC91048CF58D61
:102A0000E02D199490E080E00895CF92DF92EF924C
:102A1000FF92CF93DF93DC011796CC911797D0E00C
:102A20006111DC2F18962C91189730E0220F331F7C
:102A3000285F3C4F50E040E0F90185919491FC0102
:102A4000F080BA0190E080E0EF2DEC23ED1310C090
:102A50004F5F5F4F1D96CD90DD90ED90FC905097AD
:102A60006C157D058E059F0538F36FEF7FEFCB0169
:102A7000DF91CF91FF90EF90DF90CF9008958F92EC
:102A80009F92AF92BF92CF92DF92EF92FF920F93FD
:102A90001F93CF93DF93CDB7DEB7C054D1400FB6AD
:102AA000F894DEBF0FBECDBF8C010E94F504F80183
:102AB000C184D284E384F4849B01AC012C193D09C8
:102AC0004E095F0969017A0130EDC31637E0D3067C
:102AD000E104F104A8F48189C05CDE4F0FB6F894DC
:102AE000DEBF0FBECDBFDF91CF911F910F91FF9041
:102AF000EF90DF90CF90BF90AF909F908F90089510
:102B0000618772878387948714821382128211826D
:102B1000108262E085810E94560461E070E080E0EE
:102B200090E00E94C30461E0F80185810E94560490
:102B300060E0F80185810E94CA03F8018681855111
:102B4000823028F58BE291E10197F1F762E0F8011C
:102B500085810E945604F801828990E082309105B7
:102B600038F0880F991F880F991F05970197F1F783
:102B7000F89460E0C8010E9405156F3F7F4F8F4FAA
:102B80009F4F61F4F801118A789480E0A5CF64E149
:102B900070E080E090E00E94C304D8CF61E0C801FB
:102BA0000E9405156F3F7F4F8F4F9F4F59F39E0136
:102BB0002F5F3F4F79015E013FEBA31A3EEFB30A4F
:102BC000670160E0C8010E940515F601608371830A
:102BD0008283938361E0C8010E940515F601648336
:102BE000758386839783F8E0CF0ED11CCA14DB046B
:102BF00041F7789430E020E0F70180809180A28056
:102C0000B3804481558166817781FFEF8F169F06DF
:102C1000AF06BF0631F04F3F8FEF580768077807C0
:102C200019F4F801118AB1CFF90183E0F595E79520
:102C30008A95E1F7E00FF11F8081880F84169506D1
:102C4000A606B706F0F080832F5F3F4FF8E0EF0E47
:102C5000F11C2832310581F6F801448120818181FF
:102C6000280F3327331F8281280F311D8381820F64
:102C7000932F911D99274817190699F681E0818BAA
:102C80002BCF8160E0CF0895FC01E60FF71F23836F
:102C90003283418350830895CF93DF9300D01F92F6
:102CA000CDB7DEB7DC01A60FB71FFE0131966C5F12
:102CB0007F4F31979D01281B390B2617370718F4D2
:102CC0002D912483F6CF69817A818B819C810F902D
:102CD0000F900F900F90DF91CF910895FC017687B0
:102CE00065870895DC01ED91FC91068CF78DE02D50
:102CF000199591E089270895862F089581E0862708
:102D0000089521E0FC018485883008F020E0822FBE
:102D10000895AF92BF92CF92DF92EF92FF920F93FE
:102D20001F93CF93DF937C016B01EA0189010E941D
:102D3000CD05882309F442C0D7011896AD90BC9008
:102D4000B501C6010E9430469801295F3F4F820FAE
:102D5000931FA816B90690F1F7016681778145E0C7
:102D600050E0C6010E945602BE01600F711FFE01B5
:102D7000EC01CE1BDF0B6E01CE0EDF1ED7011696C7
:102D80004D915C916E177F0731F02191D601A40F10
:102D9000B51F2C93F0CF055011099801280F391F4A
:102DA00060E3C701DF91CF911F910F91FF90EF90EA
:102DB000DF90CF90BF90AF900C94020680E0DF913F
:102DC000CF911F910F91FF90EF90DF90CF90BF9028
:102DD000AF900895EF92FF920F931F93CF93DF93DD
:102DE000EC018B01E884F984B701C8010E943046E8
:102DF0000996E816F90688F1CE010E94CD058823D0
:102E000061F18E859F85019629F19F878E87EE81DE
:102E1000FF818F858583EE81FF818E8586836E811C
:102E20007F8147E050E0C8010E945602EE81FF8199
:102E3000E80FF91F10829C01245031094E815F81F7
:102E400062E8CE01DF91CF911F910F91FF90EF903B
:102E50000C94020681E090E0D8CF80E0DF91CF9122
:102E60001F910F91FF90EF9008950F931F93CF93B1
:102E7000DF93EC0180E2689FF0011124E056F64FE9
:102E80006A8B8091020290910302A0910402B0919A
:102E900005028E879F87A88BB98B0489158930E03E
:102EA00020E09801112700270F8B188F298F3A8F68
:102EB000828D938DB0E0A0E0AC01BD01402B512B81
:102EC000622B732B4F8B588F698F7A8F8385887114
:102ED000A9F4848D958DA68DB78D8B8B9C8BAD8B36
:102EE000BE8B81E08D8381E08C831E821F821886D9
:102EF00019861A861B861C861D8603C0803131F018
:102F000080E0DF91CF911F910F9108959E012D5E7A
:102F10003F4F8B8D9C8D0E94890E882389F384E01E
:102F2000E1CF4F925F926F927F928F929F92AF927A
:102F3000BF92FF920F931F93CF93DF9300D000D0E7
:102F40001F921F92CDB7DEB78C015B010E94CD05A9
:102F5000F82E81115AC0D80114968D919C91DC01F4
:102F6000ED91FC910688F789E02D1995882309F4E5
:102F700061C081E090E0F8019787868787E0E0E113
:102F8000F2E0DE01119601900D928A95E1F7FE01C3
:102F9000319685E090E02191D80116964D915C9193
:102FA000DA01A80FB91F2C9301968C30910599F77F
:102FB000D8011696ED91FC91179782E084871696BA
:102FC000ED91FC9117971B968C911B978587169610
:102FD000ED91FC9117971A968C911A9786871896FF
:102FE0008D909C90B401C5010E9430464196F80135
:102FF0008816990608F053C084819581DC01ED9113
:10300000FC910488F589E02D19958F2D28960FB62F
:10301000F894DEBF0FBECDBFDF91CF911F910F910E
:10302000FF90BF90AF909F908F907F906F905F9038
:103030004F900895D80191966D917C919297149636
:103040008D919C91DC01ED91FC91D80193964D916D
:103050005C9194976115710569F00088F189E02D04
:103060001995019709F485CF8EEF9FEFF80190A78E
:1030700087A3CBCF0684F785E02D2BEE32E03A8391
:1030800029835D964D905D906D907C9090974B82DA
:103090005C826D827E82BE016F5F7F4FE1CF668171
:1030A00077814FE050E0C5010E9456029C012550F7
:1030B0003109D80116964D915C9160E1C8010E94DA
:1030C00002060E94F504F801608B718B828B938B52
:1030D000648B758B868B978BF80184819581DC01DD
:1030E000ED91FC910084F185E02D1995892BF9F47F
:1030F0000E94F504F80184889588A688B7889B010A
:10310000AC01281939094A095B0949015A0124858A
:103110003585A8EEB3E00E94F44786169706A80608
:10312000B906D0F28CEF9FEF90A787A365CFBE01C1
:10313000685F7F4FC8010E94EB066430710581050E
:103140009105D1F4D8011696ED91FC9117978381E2
:1031500081110DC00E94F504F801648B758B868B7C
:10316000978B108E10A617A2FF24F3944ECF90E0F9
:1031700098969C938E939797F8013ECFAF92BF920B
:10318000CF92DF92EF92FF920F931F93CF93DF9333
:1031900000D01F92CDB7DEB78C016B017A01809110
:1031A0009C098333E9F45B016801C40ED51EC01687
:1031B000D106A9F10E9481088FE00E948C08812F1E
:1031C0000E948C08802F0E948C080F5F1F4F80E0A8
:1031D0000E948C08F50181935F010E947708E7CF78
:1031E000843369F50E94810819830A838F2D8F77B4
:1031F0008B83EC8264E070E0CE0101960E945D0852
:10320000A70170E060E0C6010E94B84BE114F10430
:1032100021F0B701C6010E945D080E947708C7012E
:103220000F900F900F900F90DF91CF911F910F9102
:10323000FF90EF90DF90CF90BF90AF9008950E94E5
:1032400081080F3F110509F030F419820A831B82AF
:1032500063E070E0D1CF17FD0BC019820A8333E021
:10326000169507953A95E1F7007E08600B83F0CF3D
:10327000C80126E0969587952A95E1F7807E198307
:103280000A830115104C18F480618B83E1CF8861AB
:10329000FCCFCF93DF931F92CDB7DEB72091F0081C
:1032A00030E0322F2227260F371F90E0982F8827F3
:1032B00041E050E0BE016F5F7F4F820F931F0E947D
:1032C000BE1889810F90DF91CF910895CF93C82FB9
:1032D000462F61E070E00E94BD0961E070E08C2F34
:1032E0000E9449198111F9CFCF910895CF93C82F2A
:1032F00080E591E00E941E0A68E070E08C2FCF917B
:103300000C946619CF93C82F80E591E00E941E0AA5
:1033100060E170E08C2FCF910C946619CF93DF930E
:10332000EC01888D883020F40E94821988E0888F13
:10333000DF91CF910895CF93C82F80E591E00E944F
:103340001E0A63E070E08C2FCF910C944919CF9343
:10335000DF93EC018C858830D0F40E949B19843176
:1033600089F0882379F0883169F021E08C3159F4B3
:10337000E881F9810084F185E02DCE01199521E0E5
:10338000892B09F420E0822FDF91CF91089580E00E
:10339000FBCFCF92DF92EF92FF92CF93DF93EC01BE
:1033A0008C85883068F40E9476190E94F5046B01C0
:1033B0007C018C850E949B19811109C088E08C8753
:1033C000DF91CF91FF90EF90DF90CF90089561E073
:1033D00070E080E090E00E94C3040E94F504AB011D
:1033E000BC014C195D096E097F098D859E85B0E091
:1033F000A0E0481759076A077B07D8F28C850E941E
:103400008219DCCFCF93FC01C08D80E591E00E9452
:103410001E0A60E270E08C2F0E94661962E070E084
:103420008C2F0E94491984FD16C062E070E08C2F39
:103430000E94491983FF0AC048E162E070E08C2FC6
:103440000E94BD0980E090E0CF91089580E591E071
:103450000E941E0AE3CF40E162E070E08C2F0E94E0
:10346000BD0981E0F0CFCF93DF931F92CDB7DEB7D8
:1034700041E050E0BE016F5F7F4F90E080E00E942E
:10348000BE1889810F90DF91CF910895CF93DF937C
:10349000C4E1D0E00E94331A882361F061E070E05B
:1034A00080E090E00E94C3042197A1F780E0DF91C3
:1034B000CF91089581E0FBCF1F93CF93DF931F92AD
:1034C000CDB7DEB7182F80E591E00E941E0A812F4C
:1034D0000E94720927E0129FF0011124EC59F64F67
:1034E00022813381377041E050E0BE016F5F7F4F32
:1034F000820F931F0E94BE1889810F90DF91CF9198
:103500001F910895FC01808D883040F4218D328D0B
:10351000232B21F00E945C1A90E008958FEF9FEF1B
:103520000895CF93DF93FC012485283028F08FEF96
:103530009FEFDF91CF910895EC010190F081E02D94
:103540000084F185E02D1995892B89F38C850E94E3
:103550005C1A90E0EECFDA01E091F008F0E0FE2F87
:10356000EE27E60FF71F90E0982F8827A901BD01ED
:103570008E0F9F1F0C94BE188F929F92AF92BF9296
:10358000CF92DF92EF92FF920F931F93CF93DF932F
:10359000CDB7DEB760970FB6F894DEBF0FBECDBFD4
:1035A0007C0190919C09911115C018E0812F6096C3
:1035B0000FB6F894DEBF0FBECDBFDF91CF911F9144
:1035C0000F91FF90EF90DF90CF90BF90AF909F90C2
:1035D0008F90089508E0933309F404E06B0180E5CF
:1035E00091E00E941E0A9E012F5F3F4F5901490141
:1035F00010E063E070E0812F0E944919F40181938B
:103600004F018823C1F01F5F0113F3CF00E0F501E4
:1036100081915F018D3149F0883139F08A518230D2
:1036200020F00F5F1013F3CFC0CF60E170E0802F68
:103630000E946619102FA12EB12C83EE93E0019702
:10364000F1F742E870E060E0812F0E94BD094FEF82
:1036500062E070E0812F0E94BD09B601C114D1045F
:1036600091F4809100029091010201968115F0EC95
:103670009F0708F45CC09093010280930002609160
:10368000000270910102812F0E94A70986E0E7E104
:10369000F2E0DE01199601900D928A95E1F7F701AB
:1036A00083818F778C8784818D8785818E87A70121
:1036B0004E5F5F4F24E030E06CE070E0812F0E94AD
:1036C0008009B601812F0E94910926E030E0AE0109
:1036D000475F5F4F66E070E0812F0E94800961E0E4
:1036E00070E0812F0E94661927E02A9DC0012B9D62
:1036F000900D11249C012C59364F7901F90111824A
:10370000108222E030E0AE01415F5F4F68E270E07E
:10371000812F0E94AB1A8F8598899827892798272F
:10372000F701938382831682158214823FCF80E053
:1037300090ECA1CFCF92DF92EF92FF920F931F9365
:10374000CF93DF9300D000D0CDB7DEB78C016B01F3
:103750007A01FC01808D883010F40E9482198BEE72
:1037600092E09A838983F60182819381A481B58155
:103770008B839C83AD83BE83B701CE0101960E94EB
:10378000BC1AF801808F8830A0F4F586E486128E8A
:10379000118E81E026960FB6F894DEBF0FBECDBF26
:1037A000DF91CF911F910F91FF90EF90DF90CF901D
:1037B000089580E0EFCF7F928F929F92AF92BF9259
:1037C000CF92DF92EF92FF920F931F93CF93DF93ED
:1037D0001F921F92CDB7DEB7782E8B014A01590197
:1037E00022E030E0AE014F5F5F4F64E270E00E9484
:1037F000AB1AE980FA80FE24EF24FE24E00EF11ECD
:103800009701377040919C09072D10E0433309F070
:1038100042C0085F1F4F102F0027110F110F110F0B
:10382000C901800F911F4733C9F1A9014A0D5B1DE2
:103830004130584098F160E078E06B01C21AD30A39
:10384000A601B4010E94B108A5014C195D09B4019B
:103850006C0D7D1DC8010E94B108EA0CFB1CF982A9
:10386000EA8222E030E0AE014F5F5F4F64E270E039
:10387000872D0E9480090F900F90DF91CF911F91AB
:103880000F91FF90EF90DF90CF90BF90AF909F90FF
:103890008F907F900895005F1F4FBDCFA501B401A9
:1038A000DACFEF92FF921F93CF93DF931F921F9275
:1038B000CDB7DEB7182F22E030E0AE014F5F5F4F8B
:1038C00060E270E00E94AB1AE980FA80FE24EF24E7
:1038D000FE2422E030E0AE014F5F5F4F60E270E017
:1038E000812F0E94AB1A89819A819827892798276E
:1038F000E816F90689F487E0189FF0011124EC59C5
:10390000F64FF582E482C7010F900F90DF91CF91BF
:103910001F91FF90EF9008957C01DBCF1F93CF9311
:10392000DF93182F80E591E00E941E0A812F0E94EC
:10393000511CEC0163E070E0812F0E94491987312E
:1039400021F08C3111F0D0E0C0E0CE01DF91CF91B9
:103950001F910895CF93DF93EC018C85883060F43C
:103960000E949B19873111F08C3131F48C850E94B3
:103970008E1C8115984088F3DF91CF910895FC014A
:103980008485883010F40C948E1C90E080E00895BB
:103990009F92AF92BF92CF92DF92EF92FF920F93DE
:1039A0001F93CF93DF938C015B01942EE52EFC01D6
:1039B000C688D788F08C80E591E00E941E0A8F2D82
:1039C0000E94511CC92DDE2D8C179D0708F4EC01B7
:1039D0009E01A501B6018F2D0E94DB1BF80186898F
:1039E00097898C0F9D1F978B868BCE01DF91CF918E
:1039F0001F910F91FF90EF90DF90CF90BF90AF900D
:103A00009F9008958F929F92AF92BF92CF92DF9234
:103A1000EF92FF920F931F93CF936C015B018A018A
:103A2000FC01C485C830F0F57A014130584018F0E7
:103A3000E12C88E0F82E80E591E00E941E0A8C2F90
:103A40000E94511C4C0163E070E08C2F0E944919C8
:103A5000873111F08C3149F58E149F0460F380E5B5
:103A600091E00E941E0A9701A50170E060E08C2F92
:103A70000E94DB1B60E270E08C2F0E94661962E0FE
:103A800070E08C2F0E94491984FD17C063E070E03C
:103A90008C2F0E94491981110BC081E090E0F60142
:103AA0009383828310E000E010C0F12CE12CD7CF8B
:103AB00080E591E00E941E0AE2CF40E162E070E002
:103AC0008C2F0E94BD09EF2841F3C801CF911F91AF
:103AD0000F91FF90EF90DF90CF90BF90AF909F90AD
:103AE0008F900895FF920F931F93CF93DF931F92B0
:103AF0001F92CDB7DEB7F82E22E030E0AE014F5F67
:103B00005F4F66E270E00E94AB1A09811A811027AC
:103B10000127102722E030E0AE014F5F5F4F66E2E1
:103B200070E08F2D0E94AB1A89819A81982789278E
:103B300098270817190749F4C8010F900F90DF91D3
:103B4000CF911F910F91FF9008958C01E3CF1F93A8
:103B5000CF93DF93182F87E0189FE0011124CC59F1
:103B6000D64F88819981009761F480E591E00E94A9
:103B70001E0A812F0E94721D2E81821B910999833A
:103B80008883DF91CF911F910895FC01848588304F
:103B900010F40C94A71D90E080E008954F925F927E
:103BA0007F928F929F92AF92BF92CF92DF92EF92CD
:103BB000FF920F931F93CF93DF931F921F92CDB766
:103BC000DEB7782E6B014A01A82EB12C27E0829F28
:103BD000C0011124FC01EC59F64F7F0100811181D5
:103BE00080E591E00E941E0A0815190554F4872DFE
:103BF0000E94721DF70126818C01021B110911839D
:103C000000830115110529F563E070E0872D0E94FE
:103C10004919843159F0882349F001E010E08C31D2
:103C200011F410E000E0119501951109C8010F9001
:103C30000F90DF91CF911F910F91FF90EF90DF9048
:103C4000CF90BF90AF909F908F907F905F904F905C
:103C50000895801691060CF4840187E08A9DF00196
:103C60008B9DF00D1124EC59F64FE280F380C114C6
:103C7000D10451F12701F7E05F22872D0E947209DC
:103C8000840D951D20919C09273309F453C0980198
:103C9000240D351D2130384008F44CC020E038E0B8
:103CA000490184189508A401B6010E94BE18260196
:103CB000480C591C6801C818D908872D0E94720940
:103CC000A601B2010E94BE18E00EF11E87E08A9D97
:103CD000F0018B9DF00D1124EC59F64FF382E28236
:103CE00020813181201B310B318320838681800F1D
:103CF000912F911D8A3F910510F4232BF1F487E059
:103D00008A9DF0018B9DF00D1124EC59F64F16821F
:103D1000F982EA8222E030E0AE014F5F5F4F68E255
:103D200070E0872D0E94800960E470E0872D0E947A
:103D300066197CCFA801B601C5CF868377CFCF9314
:103D4000DF93FC01218D328D2115310529F48FEF90
:103D50009FEFDF91CF910895EC01808D42175307BB
:103D600008F0A9010E94CE1D1816190684F7298DA6
:103D70003A8D281B390B3A8F298FEBCF0F931F9366
:103D8000CF93DF931F92CDB7DEB7FC01218D328D2B
:103D9000232B41F48FEF9FEF0F90DF91CF911F9175
:103DA0000F9108958C0141E050E0BE016F5F7F4F9D
:103DB000FC01808D0E94CE1D181619065CF7F801D3
:103DC000818D928D0197928F818F898190E0E4CFD0
:103DD000CF93DF931F92CDB7DEB741E050E0BE0135
:103DE0006F5F7F4FFC0184850E94CE1D1816190657
:103DF00034F4898190E00F90DF91CF9108958FEF97
:103E00009FEFF9CFFC018485883010F40C94CE1D0F
:103E100090E080E008958F929F92AF92BF92CF92F0
:103E2000DF92EF92FF920F931F93CF93DF9300D017
:103E300000D000D01F92CDB7DEB790919C099111B0
:103E400015C018E0812F2A960FB6F894DEBF0FBE7A
:103E5000CDBFDF91CF911F910F91FF90EF90DF9039
:103E6000CF90BF90AF909F908F90089528E0F22E52
:103E7000933311F494E0F92E6B01082F80E591E063
:103E80000E941E0A9E012F5F3F4F5901490110E019
:103E900063E070E0812F0E944919F40181934F0182
:103EA0008823C1F01F5FF112F3CFF12CF50191913E
:103EB0005F019D3149F0983139F09A51923020F0EC
:103EC000F3941F11F3CFBDCF60E170E08F2D0E94FE
:103ED00066191F2DE12EF12C83EE93E00197F1F787
:103EE000402F70E060E0812F0E94BD094FEF62E03B
:103EF00070E0812F0E94BD09B601CD2889F4809120
:103F000000029091010201968115F0EC9F0798F153
:103F1000909301028093000260910002709101026F
:103F2000812F0E94A70961E070E0812F0E9466192D
:103F300027E02E9DC0012F9D900D11249C012C592E
:103F4000364F7901F9011182108222E030E0AE0192
:103F5000475F5F4F68E270E0812F0E94AB1A89854E
:103F60009A85982789279827F70193838283168259
:103F70001582148267CF80E090ECCACF0F931F9315
:103F8000CF93DF93EC018B01888D883010F40E9471
:103F90008219B80182E00E940B1F888F883050F48C
:103FA0001D870C871A8E198E81E0DF91CF911F91AA
:103FB0000F91089580E0F9CFCF92DF92EF92FF92B8
:103FC0001F93CF93DF93EC017B016A018C858830CE
:103FD00048F40E949B19882319F08C850E94761959
:103FE00088E08C87F70182819381A481B581009755
:103FF000A105B10551F490E080E0DF91CF911F91D0
:10400000FF90EF90DF90CF9008958F3F9F4FAF4F7D
:10401000BF4F89F370E060E081E20E940B1F182F10
:104020008C87883040F780E591E00E941E0AA70146
:104030004E5F5F4F24E030E06CE070E0812F0E9423
:104040008009B601812F0E94910964E070E0812F00
:104050000E9466190E94F5046B017C018C850E9408
:104060009B19873111F18C3101F1882321F20E94D3
:10407000F504AB01BC014C195D096E097F098D8502
:104080009E85B0E0A0E084179507A607B70738F033
:1040900061E070E080E090E00E94C304DFCF8C8597
:1040A0000E94821988E08C87A6CF81E090E0A5CF9E
:1040B0000F931F93CF93DF931F921F92CDB7DEB75D
:1040C000FC0124852830E0F48C0180E591E00E9419
:1040D0001E0A22E030E0AE014F5F5F4F60E170E00A
:1040E000F80184850E94AB1A89819A8198278927D3
:1040F00098270F900F90DF91CF911F910F91089506
:1041000090E080E0F6CF0F931F93CF93DF931F9241
:104110001F92CDB7DEB7FC0124852830E0F48C0176
:1041200080E591E00E941E0A22E030E0AE014F5F80
:104130005F4F64E070E0F80184850E94AB1A8981CA
:104140009A819827892798270F900F90DF91CF9118
:104150001F910F91089590E080E0F6CFAF92BF924B
:10416000CF92DF92EF92FF920F931F93CF93DF9343
:1041700000D000D000D01F921F92CDB7DEB76C01E7
:10418000FE013196CE010C967F0120E22193E817C3
:10419000F907E1F7DA0120E037E09D91B92E992384
:1041A000A9F19E32B9F43A3091F480E02B960FB623
:1041B000F894DEBF0FBECDBFDF91CF911F910F915D
:1041C000FF90EF90DF90CF90BF90AF90089528E0E0
:1041D0003AE0E3CFE8E2F4E08491882321F03196DD
:1041E0009813FACFE2CF321700F38FED890F8E3597
:1041F000E0F68FE9890F8A3118F440EEB42EB90E3B
:10420000F701E20FF11DB0822F5FC7CF89818032A5
:1042100061F28B01FB01838D948DF601948F838F66
:10422000FB01168217821086118612861386148669
:104230001586F80182859385A485B58543895489BF
:104240006589768984179507A607B70708F0ADCF6B
:1042500025E0B695A795979587952A95D1F7F82FDC
:10426000FF70AF2EF8018581823008F49ECFC8011F
:104270000E94DC1097FD99CFF80182859385A48573
:10428000B5854F96A11DB11D82879387A487B587F9
:10429000F0E2AF9EB00111246056764F61157105B2
:1042A00009F483CFFB018081882309F1853E19F44D
:1042B000B11032C01EC04BE050E0C7010E94904BCD
:1042C000892B09F0B6CF6A2DC6012B960FB6F8944C
:1042D000DEBF0FBECDBFDF91CF911F910F91FF9039
:1042E000EF90DF90CF90BF90AF900C943517B11046
:1042F0005CCFF601A28A8091020290910302A09104
:104300000402B091050286879787A08BB18BFB01D1
:104310008081882309F449CFBB24B3948ACFDC0180
:104320008BEE92E08D939D9384E0FB0101900D92C2
:104330008A95E1F70895EF92FF920F931F93CF9321
:10434000DF9300D01F92CDB7DEB78C017B01FB015C
:1043500084858830A8F08BEE92E0F8019183808309
:104360001282138214821582C8010F900F900F9051
:104370000F90DF91CF911F910F91FF90EF900895D3
:1043800080E591E00E941E0A24E030E0AE014F5F1C
:104390005F4F6CE070E0F70184850E94AB1ABE01AC
:1043A0006F5F7F4FC8010E948F21DECF0F931F9355
:1043B000CF93DF9300D000D01F921F92CDB7DEB70E
:1043C0008C01D80159964D915C915A974115510530
:1043D00051F0ED91FC91048CF58DE02D70E060E0E2
:1043E000C8011995EECFF801808D0E94A71D892B79
:1043F000B1F148E050E0BE016F5F7F4FD8015896A1
:104400008C910E94CE1D18161906F4F4D80150960E
:1044100084E0FE01319601900D928A95E1F78D813D
:1044200090E0982F88272E81820F911DF801958B9F
:10443000848B8F81282F30E0322F22278885820FAE
:10444000932F911D928F818F28960FB6F894DEBF1F
:104450000FBECDBFDF91CF911F910F91089590E0D6
:1044600080E0F2CF4F925F926F927F928F929F92F5
:10447000AF92BF92CF92DF92EF92FF920F931F9372
:10448000CF93DF93CDB7DEB763970FB6F894DEBF57
:104490000FBECDBF7C016B013A01FB0120E090E033
:1044A00080E06AE03191332309F461C040ED430FAD
:1044B0004A3008F04DC0689FA001699F500D11243B
:1044C000CA01C097830F911D37FD9A958F3F9105C3
:1044D00049F340F3F70142815381648175818091F2
:1044E000BA0C9091BB0CA091BC0CB091BD0C4817BC
:1044F00059076A077B0709F40DC28701085F1F4F40
:104500000E94F5046F7077277C5FC8010E94BE1F70
:10451000813009F004C28BEE92E09A838983F7011F
:1045200082819381A481B5818B839C83AD83BE837B
:1045300045E350E0BE016F5F7F4FC8010E94AC149D
:10454000892BA9F5D12CC12CC8010E948E1917C046
:104550003E3209F0BFCF233009F4BCCFD301A20F04
:10456000B11D12968C932F5F90E080E09BCF23309B
:1045700009F0B0CFF3018583CC24C394D12CC601BC
:1045800063960FB6F894DEBF0FBECDBFDF91CF911B
:104590001F910F91FF90EF90DF90CF90BF90AF9061
:1045A0009F908F907F906F905F904F9008950E94A2
:1045B000F504F7017783668342E050E0B7016A5F54
:1045C0007F4FC8010E94C81C81E090E09A838983D4
:1045D00042E050E0BE016F5F7F4FC8010E94C81CDF
:1045E00080E091E09A83898342E050E0BE016F5FF2
:1045F0007F4FC8010E94C81C1A82198242E050E015
:10460000BE016F5F7F4FC8010E94C81C42E050E0AE
:10461000BE016F5F7F4FC8010E94C81C42E050E09E
:10462000BE016F5F7F4FC8010E94C81C5601F60192
:104630008081882301F16501F60181912F01882392
:1046400011F08E32B1F446018A189B08181419042F
:1046500074F48D8641E050E0BE01635F7F4FC80176
:104660000E94C81CA401B501C8010E94C81C5201C7
:10467000DECF6201E1CF1D8641E050E0BE01635F05
:104680007F4FC8010E94C81CC12CDD24D394DA825C
:10469000C98242E050E0BE016F5F7F4FC8010E94B7
:1046A000C81CDA82C98242E050E0BE016F5F7F4FD2
:1046B000C8010E94C81CC8010E94021A892B09F473
:1046C00041CFF3E0AF2EB12C230122E0420E511C6A
:1046D000D4C0F7014281538164817581808D918DB1
:1046E000A28DB38D481759076A077B0709F008C1E7
:1046F000848D958DC59709F003C181A192A15DEFCD
:10470000C52EDD24DA940C970CF4ADC04CE050E0DB
:10471000BE016F5F7F4FC8010E949F1E8B819C81ED
:104720009827892798279A8B898BF701468157818B
:1047300029813A814217530709F0E7C097FFE5C086
:104740008F7092703BEFC32EDD24DA94892B09F031
:104750008AC06F8078847624672476242AEFC22E5C
:10476000DD24DA946114710409F47DC0D12CC12CCC
:104770008D819E81982789279827C816D906F8F435
:1047800041E050E0BE01635F7F4FC8010E949F1E61
:104790004D85442331F050E070E060E0C8010E9494
:1047A0009F1E8D858111ECCF44E050E070E060E009
:1047B000C8010E949F1EFFEFCF1ADF0AD9CF912CAC
:1047C000812C41E050E0BE016D5E7F4FC8010E9428
:1047D0009F1E4B89842F807C09F06CC0442331F0EC
:1047E00050E070E060E0C8010E949F1E8B8981113B
:1047F000E8CF42E050E0BE01615F7F4FC8010E94F8
:104800009F1E42E050E0BE01635F7F4FC8010E94DF
:104810009F1E44E050E070E060E0C8010E949F1ECF
:1048200042E050E0BE016F5E7F4FC8010E949F1EB4
:104830008F85988949895A898115914009F043C02B
:10484000CD84DE84DC24CD24DC2481E0C816D104B0
:10485000D1F54115544009F04AC044E050E0B2019E
:10486000C8010E949F1E21E0A21AB10809F46CCE73
:10487000FFEFCF16DF0609F067CE0E94F5043B017B
:104880004C01C8010E94D621181619060CF421CF3C
:104890000E94F504661977098809990969387341F6
:1048A0008105910548F562E370E080E090E00E94A8
:1048B000C304E7CF41E050E070E060E0C8010E942F
:1048C0009F1E1B8A93CF54274527542770E060E032
:1048D000C8010E949F1EFFEF8F1A9F0A6814790477
:1048E00009F06FCF96EFC92EDD24DA94BCCFE7EF45
:1048F000CE2EDD24DA94B7CFCC24CA94DC2CB3CFEF
:104900006EEFC62EDD24DA94AECF4CEFC42EDD243C
:10491000DA94A9CF8EEFC82EDD24DA9430CED12CD4
:10492000C12C2DCECF92DF92EF92FF920F931F9367
:10493000CF93DF93CDB7DEB7AF970FB6F894DEBF56
:104940000FBECDBF7C016A010BEE12E01A83098312
:104950001C861B8688EE93E0A0E0B0E08D879E87E2
:10496000AF87B88B81E992E09A878987188F0F8B80
:10497000198E1A8E1B8E1C8E88E089A31BA70AA78E
:104980001CA61DA61EA61FA68091AE0C9091AF0C72
:10499000A091B00CB091B10C8EA39FA3A8A7B9A70A
:1049A0008B839C83AD83BE8318861F82AE01465DD8
:1049B0005F4FCE0101960E94322281309105B1F401
:1049C000D701ED91FC910488F589E02D1DA30CA37E
:1049D0008CA59DA5AEA5BFA58EA39FA3A8A7B9A78B
:1049E000A601BE016C5D7F4FC7011995AF960FB64A
:1049F000F894DEBF0FBECDBFDF91CF911F910F9115
:104A0000FF90EF90DF90CF900895CF92DF92EF92DA
:104A1000FF920F931F93CF93DF93CDB7DEB7AF977E
:104A20000FB6F894DEBF0FBECDBF8C016B017A01CB
:104A30008BEE92E09A8389831B821C821D821E82E8
:104A40001C861B8648EE53E060E070E04D875E8771
:104A50006F87788B21E932E03A872987988F8F8B8F
:104A6000198E1A8E1B8E1C8E28E029A39BA78AA75D
:104A70001CA61DA61EA61FA6D8011C968C918830C8
:104A800060F40E949B19882321F0F80184850E941C
:104A9000761988E0D8011C968C938091AE0C909189
:104AA000AF0CA091B00CB091B10C8EA39FA3A8A79E
:104AB000B9A78B839C83AD83BE8318861F82AE010A
:104AC000465D5F4FB601CE0101960E9432220097EB
:104AD000C1F0D801ED91FC910684F785E02D8BEEB5
:104AE00092E09DA38CA38CA59DA5AEA5BFA58EA38A
:104AF0009FA3A8A7B9A7A701BE016C5D7F4FC801FE
:104B00001995AF960FB6F894DEBF0FBECDBFDF91FB
:104B1000CF911F910F91FF90EF90DF90CF9008956C
:104B20003F924F925F926F927F928F929F92AF923D
:104B3000BF92CF92DF92EF92FF920F931F93CF938A
:104B4000DF93CDB7DEB7EA970FB6F894DEBF0FBE9E
:104B5000CDBF7C012A013B0169010E94F5044B0194
:104B60005C0187010D5B1F4FC8010E94D6211816FA
:104B700019069CF00E94F504681979098A099B09B5
:104B8000461657066806790608F466C162E370E0C7
:104B900080E090E00E94C304E7CF42E250E0BE0113
:104BA0006F5F7F4FC8010E949F1E89818230D1F0C4
:104BB000312C832DEA960FB6F894DEBF0FBECDBF21
:104BC000DF91CF911F910F91FF90EF90DF90CF90E9
:104BD000BF90AF909F908F907F906F905F904F901D
:104BE0003F900895F801848995898334910501F7F0
:104BF0006D817E818F8198850E94A84A4B015C015E
:104C0000F60180829182A282B38246E050E0B70131
:104C1000685F7F4FCE014D960E94904B892B41F6E5
:104C2000F70180819181A281B38188169906AA0635
:104C3000BB0608F4BDCF84819581A681B781881514
:104C40009905AA05BB0508F4B3CF89899A89AB8970
:104C5000BC8986879787A08BB18B4EEC50E070E0C3
:104C600060E0C8010E949F1E312CC701829698AB5C
:104C70008FA7F701B696FAABE9AB08969CAB8BAB66
:104C800067019AE1C90ED11CBD96FEABEDABC70121
:104C9000429698AF8FABFD97FAAFE9AF4701FEE1BF
:104CA0008F0E911CF801818D928D181619060CF04B
:104CB00080CFC8010E94BE1E8333910509F4B2C0A3
:104CC00014F58130910509F464C044F4892B51F343
:104CD000C8010E94BE1EAC01552775C083309105E6
:104CE00009F462C00697A1F7C8010E94BE1EB82E43
:104CF00044E050E0B401C8010E949F1EEB2DE45037
:104D0000FF0BAF0160C08A33910509F45FC084F5E1
:104D100085339105B1F1C697D9F6C8010E94BE1E30
:104D20005C01B601CE0189960E948F218BA59CA5BE
:104D3000ADA5BEA5892B8A2B8B2BB1F0EDA9FEA9C1
:104D40004080518062807380B601CE0183960E94BC
:104D50008F218DA19EA1AFA1B8A5A5014816590626
:104D60006A067B0609F0B8CF44E050E0B60118C0EF
:104D70008B33910509F440C08F3F910509F492CF20
:104D8000A7CFC8010E94BE1EC8010E94BE1E382EB9
:104D900089CFC8010E94BE1E44E050E06FA978ADE3
:104DA000C8010E949F1E7ECFC8010E94BE1EB82E61
:104DB00044E050E069AD7AADC8010E949F1E8B2D82
:104DC0008450990BAC0170E060E0EACFC8010E940A
:104DD000BE1E44E050E069A97AA9C8010E949F1E46
:104DE000F70166A177A180A591A50E94A84A66A3B4
:104DF00077A380A791A756CFC8010E94BE1E44E0AA
:104E000050E06BA97CA9C8010E949F1EF70162A512
:104E100073A584A595A50E94A84A62A773A784A735
:104E200095A740CFC8010E94BE1E44E050E06FA588
:104E300078A9C8010E949F1EF70162A173A184A1F5
:104E400095A10E94A84A62A373A384A395A366A711
:104E500077A780AB91AB26CF33243A94AACE7F922A
:104E60008F929F92AF92BF92CF92DF92EF92FF927A
:104E70000F931F93CF93DF93CDB7DEB7A6970FB6EF
:104E8000F894DEBF0FBECDBF8C01762E942E852EFA
:104E900020E2A22ECE0101967C01DC01EA2D1D92BA
:104EA000EA95E9F76801F3E4CF0ED11C8BEE92E0AE
:104EB0009AA389A38FEF8BA38CA38DA38EA343E426
:104EC00050E0BE016F5D7F4FC6010E94AC14019699
:104ED00009F4BFC081E089838A8386E0B82EBB8253
:104EE0001C82D80114966D917D918D919C9117979C
:104EF0000E94A84A6D837E838F83988789869A86CD
:104F000080E890E09C878B874CE150E0B701C601B8
:104F10000E94C81CFE0137968AE1DF011D928A9526
:104F2000E9F74801B8E08B0E911CF401D70101901C
:104F30000D92BA94E1F740E150E0B701C6010E943A
:104F4000C81CF7011192AA94E9F796E0A92EB12C9A
:104F500040E250E0B701C6010E94C81CF1E0AF1A60
:104F6000B108B1F783E6898392E89A8393E59B833E
:104F70008C8385E38D8381E08E837F829DE3988798
:104F800097E099878A8786E0F401DE011B960190FD
:104F90000D928A95E1F78CE0898B8A8B6DEE72E039
:104FA000CE0143960E94D34BD8011B966C91CE0143
:104FB00049960E947802F8016485CE014B960E94C2
:104FC0007802D8011D966C91CE014D960E94780210
:104FD0004EE150E0B701C6010E94C81CB3E07B124D
:104FE0001EC082E3898384E08A83F80196859B83CF
:104FF00097859C8390899D8391899E8396E39F8367
:105000008887828D8987838D8A87848D8B87858D1C
:105010008C874CE050E0B701C6010E94C81C87E3B2
:10502000898386E08A8391E09B8393E09C838D83D0
:105030008FE08E838AE38F838BE388878FEF898766
:1050400049E050E0B701C6010E94C81CC6010E9499
:10505000021AA6960FB6F894DEBF0FBECDBFDF9141
:10506000CF911F910F91FF90EF90DF90CF90BF9065
:10507000AF909F908F907F900895CF93DF93EC0136
:1050800088819981009711F00E9403451982188246
:105090001D821C821B821A82DF91CF910895EF92AC
:1050A000FF920F931F93CF93DF93EC017B018A0153
:1050B0001B821A8288EE93E0A0E0B0E08C839D838F
:1050C000AE83BF8389ED92E0998388838DE190E080
:1050D0000E9467449A8F898F009779F02DE1F7013C
:1050E000DC0101900D922A95E1F74CE050E0B80107
:1050F000CE010C960E94DA4B188EDF91CF911F9152
:105100000F91FF90EF900895CF93DF938091DA088D
:105110009091DB08892B09F045C087E690E00E945A
:105120006744EC011B821A8288EE93E0A0E0B0E0B5
:105130008C839D83AE83BF8381E392E099838883D0
:1051400088E08C8788EE93E09E878D871A8A198A7B
:105150008FE592E0988B8F878BEE92E09BA78AA7D2
:105160001CA61DA61EA61FA68FEF9FEF9FAB8EABA2
:105170001C8A1B8A1DAA1CAA19A618A680E091E009
:105180000E9467449E8B8D8B80E091E0988F8F8B7F
:105190008FE090E09A8F898F9C8F8B8FD093DB0864
:1051A000C093DA088091DA089091DB08DF91CF9103
:1051B00008950F931F93CF93DF93EC01888199811A
:1051C000009759F02A813B812617370730F081E09C
:1051D000DF91CF911F910F9108958B016F5F7F4FEA
:1051E0000E94AF4A009759F0998388831B830A83F2
:1051F0002C813D81232B59F7FC011082E8CF80E000
:10520000E7CFFB0101900020E9F73197AF01461B82
:10521000570BDC01ED91FC910280F381E02D199494
:105220008F929F92AF92BF92EF92FF920F931F9334
:10523000CF93DF93CDB7DEB7A1970FB6F894DEBF5B
:105240000FBECDBF7C01FA01CB0119A2223008F4B8
:105250002AE08E010F5D1F4F822E912CB12CA12CC4
:10526000BF01A50194010E94D247F901CA016A3029
:105270000CF5605DD8016E938D01232B242B252B1B
:1052800079F790E080E0109721F0BD01C7010E94FE
:105290000129A1960FB6F894DEBF0FBECDBFDF91F6
:1052A000CF911F910F91FF90EF90BF90AF909F9083
:1052B0008F900895695CDECFCF92DF92EF92FF92DC
:1052C0000F931F93CF93DF9377FF1DC06A017B017C
:1052D000EC016DE20E948F028C0144275527BA0130
:1052E0004C195D096E097F092AE0CE010E94102940
:1052F000800F911FDF91CF911F910F91FF90EF9041
:10530000DF90CF9008952AE0DF91CF911F910F9108
:10531000FF90EF90DF90CF900C9410298F929F9286
:10532000AF92BF92CF92DF92EF92FF920F931F93B3
:10533000CF93DF937C018B016C0182E0C80ED11CFE
:105340004701E5E08E0E911CD0E0C0E0F6014191EE
:105350006F0150E070E060E02AE0C8010E9410296F
:105360005C016EE2C8010E948F028A0D9B1DC80F6E
:10537000D91FC814D90451F7F701458150E070E0F6
:1053800060E02AE0C8010E9410298C0F9D1FDF9168
:10539000CF911F910F91FF90EF90DF90CF90BF9032
:1053A000AF909F908F90089564EF72E00C94012964
:1053B0000F931F93CF93DF93EC012AE00E941029F3
:1053C0008C01CE010E94D429800F911FDF91CF91D3
:1053D0001F910F9108950F931F93CF93DF93EC01CB
:1053E000462F50E070E060E02AE00E9410298C0116
:1053F000CE010E94D429800F911FDF91CF911F9180
:105400000F9108950F931F93CF93DF93EC01AB019E
:10541000770F660B770B0E945C298C01CE010E94EE
:10542000D429800F911FDF91CF911F910F91089583
:105430004F925F926F927F928F929F92AF92BF92A4
:10544000CF92DF92EF92FF92CF93DF93EC016A014C
:105450007B01AB019601CB01B6010E943D4A67EF8B
:1054600072E081111AC046015701E894B7F82FEF96
:105470003FEF4FE75FE7C501B4010E943D4A81114C
:1054800024C02FEF3FEF4FE75FE7C501B4010E9453
:105490007C461816D4F46BEF72E0CE010E9401290D
:1054A0007C01CE010E94D4298E0D9F1DDF91CF91EA
:1054B000FF90EF90DF90CF90BF90AF909F908F9034
:1054C0007F906F905F904F9008952FEF3FEF4FE7E1
:1054D0005FE4C701B6010E94724918161CF46FEF11
:1054E00072E0DBCF2FEF3FEF4FE75FECC701B60174
:1054F0000E947C4687FDF3CF20E030E0A901C70180
:10550000B6010E947C46B12CA12C87FF09C06DE238
:10551000CE010E948F025C01F7FAF094F7F8F09444
:105520002AE037ED43EA5BE3C701B6010E94044875
:105530002B013C010E941C496B017C010E948146A9
:105540009B01AC01C301B2010E9403482B013C0145
:105550002AE0B701A601CE010E9410297C01EA0CC5
:10556000FB1C6EE2CE010E948F02E80EF91E20E0C5
:1055700030E040E251E4C301B2010E94E2462B0157
:105580003C010E941C494B01B12CA12C2AE0B50121
:10559000A401CE010E941029E80EF91EC501B40134
:1055A0000E9481469B01AC01C301B2010E940348E5
:1055B00020E030E040E251E40E94E2460E941C49B3
:1055C000AB0170E060E02AE0CE010E941029E80EF5
:1055D000F91E67CFCF93DF93AB01BC0180EA9BE05C
:1055E0000E945C29EC0180EA9BE00E94D4298C0F88
:1055F0009D1FDF91CF9108950F931F93CF93DF935A
:105600008C01D0E0C0E0F801EC0FFD1F649166232F
:1056100041F080EA9BE00E942C03892B11F0219637
:10562000F2CF80EA9BE00E94D4298C0F9D1FDF916E
:10563000CF911F910F9108950F931F93CF93DF93F5
:10564000EC01AB0170E060E02AE00E9410298C01BF
:10565000CE010E94D429800F911FDF91CF911F911D
:105660000F9108950F931F93CF93DF938C01D0E098
:10567000C0E06115710519F00E940129EC01C80113
:105680000E94D4298C0F9D1FDF91CF911F910F9104
:105690000895EF92FF920F931F93CF93DF93EC0146
:1056A0007B0163E073E080EA9BE00E94322B8E0175
:1056B000015F1F4FC8010E94CD058823E9F0BE019C
:1056C000645C7F4F80EA9BE00E94322B20E130E057
:1056D000A70160E173E0C8010E94891681110CC026
:1056E00068E173E080EA9BE0DF91CF911F910F9119
:1056F000FF90EF900C94322BDF91CF911F910F917F
:10570000FF90EF900895EF92FF920F931F93CF9326
:10571000DF938C017B0161E373E080EA9BE00E94F0
:10572000322B63E070E080EA9BE00E94022A63E093
:1057300070E080EA9BE00E941C2B60E573E080EA49
:105740009BE00E94322BE8018701F12CE12C24968A
:1057500083E0E816F10449F188859985AA85BB851F
:10576000F80181939193A193B1938F0188E394E021
:105770000E94FC2AB70180EA9BE00E94022A488529
:1057800059856A857B8580EA9BE00E94182AF8018A
:105790003497408151816281738180EA9BE00E944D
:1057A000182AFFEFEF1AFF0AD2CF90E080E0DF91D6
:1057B000CF911F910F91FF90EF9008950F931F933A
:1057C000CF93DF938C01EB0162E070E080EA9BE015
:1057D0000E941C2B6EE573E080EA9BE00E94322B56
:1057E000F80180819181A281B38188839983AA8302
:1057F000BB8384819581A681B7818C839D83AE8391
:10580000BF8380859185A285B38588879987AA877C
:10581000BB8790E080E0DF91CF911F910F910895B9
:10582000CF93DF93EC016CE673E080EA9BE00E948B
:10583000322B80E090E0A0E8BFEB8A839B83AC83AF
:10584000BD83DF91CF9108958F929F92AF92BF92C7
:10585000CF92DF92EF92FF921F93CF93DF93EC01F1
:1058600065E873E080EA9BE00E94322BCE01069649
:105870000E943F15882339F08C858C3009F46FC065
:1058800048F48B3011F1C12CD12C90ECE92E9FE71C
:10589000F92E43C085518230B0F7B8846B2D70E08B
:1058A000762F662766277F778985682B90E080E0D2
:1058B0000E9481462DEC3CEC4CEC5DE30E94E246FC
:1058C0006B017C01B7FE29C068C0688570E090E07C
:1058D00080E00E9481464B015C01C985C7FF0AC078
:1058E000AC019B0160E070E080E89FEB0E94034800
:1058F0004B015C01CF706C2F70E090E080E00E9463
:1059000083462DEC3CEC4CEC5DE30E94E246A501A5
:1059100094010E9404486B017C01B701A60180EA52
:105920009BE00E94182AA7019601C701B6010E94B8
:105930003D4A882331F0C12CD12C80E8E82E8FEB32
:10594000F82EC701B601DF91CF911F91FF90EF9024
:10595000DF90CF90BF90AF909F908F900895188563
:10596000612F70E090E080E00E9481464B015C0175
:1059700069856F7070E090E080E00E9483462DECB6
:105980003CEC4CEC5DE30E94E246A50194010E94D0
:1059900004486B017C0117FFC0CFF7FAF094F7F8C9
:1059A000F094BBCFCF93DF93EC0161EA73E080EA20
:1059B0009BE00E94322B80E090E0A0E8BFEB8A835E
:1059C0009B83AC83BD8362E08B850E9456040E945A
:1059D000F504605D7740810991096F87788B898B29
:1059E0009A8B87E3888FDF91CF9108950F931F9350
:1059F000CF93DF938C016BEB73E080EA9BE00E9416
:105A0000322B61E086E00E94CA0364EF71E080E01F
:105A100090E00E94C30487E30E948704EC0160E0E9
:105A200086E00E94CA036FEF73E06C1B7D0B072EAC
:105A3000000C880B990B0E948346F80162837383E4
:105A400084839583BE0180EA9BE00E94022A60E085
:105A500070E080E89FEBCD2B29F0F8016281738123
:105A600084819581DF91CF911F910F91089563ED0E
:105A700073E080EA9BE00E94322B61E086E00E94A6
:105A8000560460E086E00C94CA03EF92FF920F93F5
:105A90001F93CF93DF937C018B0169EE73E080EA63
:105AA0009BE00E94322BE80187017E018CE0E80E2A
:105AB000F11C89919991A991B991F80181939193E0
:105AC000A193B1938F01FE0134974081518162818E
:105AD000738180EA9BE00E94182AF8013497408184
